{
  "_format": "hh-sol-artifact-1",
  "contractName": "EthEcho",
  "sourceName": "contracts/EthEcho.sol",
  "abi": [
    {
      "inputs": [],
      "stateMutability": "nonpayable",
      "type": "constructor"
    },
    {
      "anonymous": false,
      "inputs": [
        {
          "indexed": true,
          "internalType": "uint256",
          "name": "echoId",
          "type": "uint256"
        },
        {
          "indexed": true,
          "internalType": "address",
          "name": "from",
          "type": "address"
        },
        {
          "indexed": false,
          "internalType": "uint256",
          "name": "timestamp",
          "type": "uint256"
        }
      ],
      "name": "DeleteEcho",
      "type": "event"
    },
    {
      "anonymous": false,
      "inputs": [
        {
          "indexed": true,
          "internalType": "address",
          "name": "from",
          "type": "address"
        },
        {
          "indexed": true,
          "internalType": "uint256",
          "name": "echoId",
          "type": "uint256"
        },
        {
          "indexed": false,
          "internalType": "uint256",
          "name": "timestamp",
          "type": "uint256"
        },
        {
          "indexed": false,
          "internalType": "string",
          "name": "cid",
          "type": "string"
        }
      ],
      "name": "NewEcho",
      "type": "event"
    },
    {
      "inputs": [],
      "name": "getAllEchoes",
      "outputs": [
        {
          "components": [
            {
              "internalType": "uint256",
              "name": "id",
              "type": "uint256"
            },
            {
              "internalType": "address",
              "name": "echoer",
              "type": "address"
            },
            {
              "internalType": "string",
              "name": "cid",
              "type": "string"
            },
            {
              "internalType": "uint256",
              "name": "timestamp",
              "type": "uint256"
            }
          ],
          "internalType": "struct EthEcho.Echo[]",
          "name": "",
          "type": "tuple[]"
        }
      ],
      "stateMutability": "view",
      "type": "function"
    },
    {
      "inputs": [
        {
          "internalType": "uint256",
          "name": "_echoId",
          "type": "uint256"
        }
      ],
      "name": "removeEcho",
      "outputs": [],
      "stateMutability": "nonpayable",
      "type": "function"
    },
    {
      "inputs": [
        {
          "internalType": "string",
          "name": "_cid",
          "type": "string"
        }
      ],
      "name": "writeEcho",
      "outputs": [],
      "stateMutability": "nonpayable",
      "type": "function"
    }
  ],
  "bytecode": "0x60806040523480156200001157600080fd5b506200003c60405180608001604052806041815260200162001511604191396200004260201b60201c565b6200023c565b620000e281604051602401620000599190620001e9565b6040516020818303038152906040527f41304fac000000000000000000000000000000000000000000000000000000007bffffffffffffffffffffffffffffffffffffffffffffffffffffffff19166020820180517bffffffffffffffffffffffffffffffffffffffffffffffffffffffff8381831617835250505050620000e560201b60201c565b50565b6200010b81620001066200010e60201b620006dd176200012f60201b60201c565b60201c565b50565b60006a636f6e736f6c652e6c6f679050600080835160208501845afa505050565b6200014360201b620007c217819050919050565b6200014d6200020d565b565b600081519050919050565b600082825260208201905092915050565b60005b838110156200018b5780820151818401526020810190506200016e565b60008484015250505050565b6000601f19601f8301169050919050565b6000620001b5826200014f565b620001c181856200015a565b9350620001d38185602086016200016b565b620001de8162000197565b840191505092915050565b60006020820190508181036000830152620002058184620001a8565b905092915050565b7f4e487b7100000000000000000000000000000000000000000000000000000000600052605160045260246000fd5b6112c5806200024c6000396000f3fe608060405234801561001057600080fd5b50600436106100415760003560e01c806305eefb57146100465780633251381d14610062578063fc1540171461007e575b600080fd5b610060600480360381019061005b91906109c1565b61009c565b005b61007c60048036038101906100779190610a40565b61023b565b005b6100866104fd565b6040516100939190610c61565b60405180910390f35b6000808154809291906100ae90610cb2565b91905055506100f36040518060400160405280601881526020017f257320686173206563686f65642077697468204349443a20000000000000000081525033836106fe565b6000604051806080016040528060005481526020013373ffffffffffffffffffffffffffffffffffffffff1681526020018381526020014281525090508060016000805481526020019081526020016000206000820151816000015560208201518160010160006101000a81548173ffffffffffffffffffffffffffffffffffffffff021916908373ffffffffffffffffffffffffffffffffffffffff16021790555060408201518160020190816101ab9190610f06565b5060608201518160030155905050600260005490806001815401808255809150506001900390600052602060002001600090919091909150556000543373ffffffffffffffffffffffffffffffffffffffff167fe48572b63b7f149431fb0b9fda2e6b5abc3e8edbe53c6537f69a45c433ecca33428560405161022f929190611031565b60405180910390a35050565b80600073ffffffffffffffffffffffffffffffffffffffff166001600083815260200190815260200160002060010160009054906101000a900473ffffffffffffffffffffffffffffffffffffffff1673ffffffffffffffffffffffffffffffffffffffff16036102e1576040517f08c379a00000000000000000000000000000000000000000000000000000000081526004016102d8906110ad565b60405180910390fd5b3373ffffffffffffffffffffffffffffffffffffffff166001600084815260200190815260200160002060010160009054906101000a900473ffffffffffffffffffffffffffffffffffffffff1673ffffffffffffffffffffffffffffffffffffffff1614610385576040517f08c379a000000000000000000000000000000000000000000000000000000000815260040161037c9061113f565b60405180910390fd5b60005b60028054905081101561044c5782600282815481106103aa576103a961115f565b5b90600052602060002001540361043957600260016002805490506103ce919061118e565b815481106103df576103de61115f565b5b9060005260206000200154600282815481106103fe576103fd61115f565b5b9060005260206000200181905550600280548061041e5761041d6111c2565b5b6001900381819060005260206000200160009055905561044c565b808061044490610cb2565b915050610388565b50600160008381526020019081526020016000206000808201600090556001820160006101000a81549073ffffffffffffffffffffffffffffffffffffffff02191690556002820160006104a091906107cc565b600382016000905550503373ffffffffffffffffffffffffffffffffffffffff16827f11a21565f445f9fb9560b22f0bc378ff14b6eb97647dc547ed22254f367bd340426040516104f191906111f1565b60405180910390a35050565b6060600060028054905067ffffffffffffffff8111156105205761051f610896565b5b60405190808252806020026020018201604052801561055957816020015b61054661080c565b81526020019060019003908161053e5790505b50905060005b6002805490508110156106d55760016000600283815481106105845761058361115f565b5b90600052602060002001548152602001908152602001600020604051806080016040529081600082015481526020016001820160009054906101000a900473ffffffffffffffffffffffffffffffffffffffff1673ffffffffffffffffffffffffffffffffffffffff1673ffffffffffffffffffffffffffffffffffffffff16815260200160028201805461061890610d29565b80601f016020809104026020016040519081016040528092919081815260200182805461064490610d29565b80156106915780601f1061066657610100808354040283529160200191610691565b820191906000526020600020905b81548152906001019060200180831161067457829003601f168201915b505050505081526020016003820154815250508282815181106106b7576106b661115f565b5b602002602001018190525080806106cd90610cb2565b91505061055f565b508091505090565b60006a636f6e736f6c652e6c6f679050600080835160208501845afa505050565b6107988383836040516024016107169392919061121b565b6040516020818303038152906040527fe0e9ad4f000000000000000000000000000000000000000000000000000000007bffffffffffffffffffffffffffffffffffffffffffffffffffffffff19166020820180517bffffffffffffffffffffffffffffffffffffffffffffffffffffffff838183161783525050505061079d565b505050565b6107b4816107ac6106dd6107b7565b63ffffffff16565b50565b6107c2819050919050565b6107ca611260565b565b5080546107d890610d29565b6000825580601f106107ea5750610809565b601f016020900490600052602060002090810190610808919061084a565b5b50565b604051806080016040528060008152602001600073ffffffffffffffffffffffffffffffffffffffff16815260200160608152602001600081525090565b5b8082111561086357600081600090555060010161084b565b5090565b6000604051905090565b600080fd5b600080fd5b600080fd5b600080fd5b6000601f19601f8301169050919050565b7f4e487b7100000000000000000000000000000000000000000000000000000000600052604160045260246000fd5b6108ce82610885565b810181811067ffffffffffffffff821117156108ed576108ec610896565b5b80604052505050565b6000610900610867565b905061090c82826108c5565b919050565b600067ffffffffffffffff82111561092c5761092b610896565b5b61093582610885565b9050602081019050919050565b82818337600083830152505050565b600061096461095f84610911565b6108f6565b9050828152602081018484840111156109805761097f610880565b5b61098b848285610942565b509392505050565b600082601f8301126109a8576109a761087b565b5b81356109b8848260208601610951565b91505092915050565b6000602082840312156109d7576109d6610871565b5b600082013567ffffffffffffffff8111156109f5576109f4610876565b5b610a0184828501610993565b91505092915050565b6000819050919050565b610a1d81610a0a565b8114610a2857600080fd5b50565b600081359050610a3a81610a14565b92915050565b600060208284031215610a5657610a55610871565b5b6000610a6484828501610a2b565b91505092915050565b600081519050919050565b600082825260208201905092915050565b6000819050602082019050919050565b610aa281610a0a565b82525050565b600073ffffffffffffffffffffffffffffffffffffffff82169050919050565b6000610ad382610aa8565b9050919050565b610ae381610ac8565b82525050565b600081519050919050565b600082825260208201905092915050565b60005b83811015610b23578082015181840152602081019050610b08565b60008484015250505050565b6000610b3a82610ae9565b610b448185610af4565b9350610b54818560208601610b05565b610b5d81610885565b840191505092915050565b6000608083016000830151610b806000860182610a99565b506020830151610b936020860182610ada565b5060408301518482036040860152610bab8282610b2f565b9150506060830151610bc06060860182610a99565b508091505092915050565b6000610bd78383610b68565b905092915050565b6000602082019050919050565b6000610bf782610a6d565b610c018185610a78565b935083602082028501610c1385610a89565b8060005b85811015610c4f5784840389528151610c308582610bcb565b9450610c3b83610bdf565b925060208a01995050600181019050610c17565b50829750879550505050505092915050565b60006020820190508181036000830152610c7b8184610bec565b905092915050565b7f4e487b7100000000000000000000000000000000000000000000000000000000600052601160045260246000fd5b6000610cbd82610a0a565b91507fffffffffffffffffffffffffffffffffffffffffffffffffffffffffffffffff8203610cef57610cee610c83565b5b600182019050919050565b7f4e487b7100000000000000000000000000000000000000000000000000000000600052602260045260246000fd5b60006002820490506001821680610d4157607f821691505b602082108103610d5457610d53610cfa565b5b50919050565b60008190508160005260206000209050919050565b60006020601f8301049050919050565b600082821b905092915050565b600060088302610dbc7fffffffffffffffffffffffffffffffffffffffffffffffffffffffffffffffff82610d7f565b610dc68683610d7f565b95508019841693508086168417925050509392505050565b6000819050919050565b6000610e03610dfe610df984610a0a565b610dde565b610a0a565b9050919050565b6000819050919050565b610e1d83610de8565b610e31610e2982610e0a565b848454610d8c565b825550505050565b600090565b610e46610e39565b610e51818484610e14565b505050565b5b81811015610e7557610e6a600082610e3e565b600181019050610e57565b5050565b601f821115610eba57610e8b81610d5a565b610e9484610d6f565b81016020851015610ea3578190505b610eb7610eaf85610d6f565b830182610e56565b50505b505050565b600082821c905092915050565b6000610edd60001984600802610ebf565b1980831691505092915050565b6000610ef68383610ecc565b9150826002028217905092915050565b610f0f82610ae9565b67ffffffffffffffff811115610f2857610f27610896565b5b610f328254610d29565b610f3d828285610e79565b600060209050601f831160018114610f705760008415610f5e578287015190505b610f688582610eea565b865550610fd0565b601f198416610f7e86610d5a565b60005b82811015610fa657848901518255600182019150602085019450602081019050610f81565b86831015610fc35784890151610fbf601f891682610ecc565b8355505b6001600288020188555050505b505050505050565b610fe181610a0a565b82525050565b600082825260208201905092915050565b600061100382610ae9565b61100d8185610fe7565b935061101d818560208601610b05565b61102681610885565b840191505092915050565b60006040820190506110466000830185610fd8565b81810360208301526110588184610ff8565b90509392505050565b7f4563686f20646f6573206e6f7420657869737400000000000000000000000000600082015250565b6000611097601383610fe7565b91506110a282611061565b602082019050919050565b600060208201905081810360008301526110c68161108a565b9050919050565b7f4f6e6c79207468652073656e6465722063616e2072656d6f766520746865697260008201527f206563686f000000000000000000000000000000000000000000000000000000602082015250565b6000611129602583610fe7565b9150611134826110cd565b604082019050919050565b600060208201905081810360008301526111588161111c565b9050919050565b7f4e487b7100000000000000000000000000000000000000000000000000000000600052603260045260246000fd5b600061119982610a0a565b91506111a483610a0a565b92508282039050818111156111bc576111bb610c83565b5b92915050565b7f4e487b7100000000000000000000000000000000000000000000000000000000600052603160045260246000fd5b60006020820190506112066000830184610fd8565b92915050565b61121581610ac8565b82525050565b600060608201905081810360008301526112358186610ff8565b9050611244602083018561120c565b81810360408301526112568184610ff8565b9050949350505050565b7f4e487b7100000000000000000000000000000000000000000000000000000000600052605160045260246000fdfea2646970667358221220fbd70b3ea9ff0d64e00c9cebc5222542c26618712b22ee754323cd59fd166a5864736f6c634300081300334574684563686f20636f6e7472616374206465706c6f7965642077697468206d617070696e6720616e64204944206c69737420696d706c656d656e746174696f6e",
  "linkReferences": {},
  "deployedLinkReferences": {}
}