{
  "_format": "hh-sol-artifact-1",
  "contractName": "EthEcho",
  "sourceName": "contracts/EthEcho.sol",
  "abi": [
    {
      "inputs": [],
      "stateMutability": "nonpayable",
      "type": "constructor"
    },
    {
      "anonymous": false,
      "inputs": [
        {
          "indexed": true,
          "internalType": "address",
          "name": "from",
          "type": "address"
        },
        {
          "indexed": false,
          "internalType": "uint256",
          "name": "timestamp",
          "type": "uint256"
        },
        {
          "indexed": false,
          "internalType": "string",
          "name": "cid",
          "type": "string"
        }
      ],
      "name": "NewEcho",
      "type": "event"
    },
    {
      "inputs": [],
      "name": "getAllEchoes",
      "outputs": [
        {
          "components": [
            {
              "internalType": "address",
              "name": "echoer",
              "type": "address"
            },
            {
              "internalType": "string",
              "name": "cid",
              "type": "string"
            },
            {
              "internalType": "uint256",
              "name": "timestamp",
              "type": "uint256"
            }
          ],
          "internalType": "struct EthEcho.Echo[]",
          "name": "",
          "type": "tuple[]"
        }
      ],
      "stateMutability": "view",
      "type": "function"
    },
    {
      "inputs": [
        {
          "internalType": "uint256",
          "name": "id",
          "type": "uint256"
        }
      ],
      "name": "getEchoById",
      "outputs": [
        {
          "components": [
            {
              "internalType": "address",
              "name": "echoer",
              "type": "address"
            },
            {
              "internalType": "string",
              "name": "cid",
              "type": "string"
            },
            {
              "internalType": "uint256",
              "name": "timestamp",
              "type": "uint256"
            }
          ],
          "internalType": "struct EthEcho.Echo",
          "name": "",
          "type": "tuple"
        }
      ],
      "stateMutability": "view",
      "type": "function"
    },
    {
      "inputs": [],
      "name": "getLatestEcho",
      "outputs": [
        {
          "components": [
            {
              "internalType": "address",
              "name": "echoer",
              "type": "address"
            },
            {
              "internalType": "string",
              "name": "cid",
              "type": "string"
            },
            {
              "internalType": "uint256",
              "name": "timestamp",
              "type": "uint256"
            }
          ],
          "internalType": "struct EthEcho.Echo",
          "name": "",
          "type": "tuple"
        }
      ],
      "stateMutability": "view",
      "type": "function"
    },
    {
      "inputs": [],
      "name": "getTotalEchoes",
      "outputs": [
        {
          "internalType": "uint256",
          "name": "",
          "type": "uint256"
        }
      ],
      "stateMutability": "view",
      "type": "function"
    },
    {
      "inputs": [
        {
          "internalType": "string",
          "name": "_cid",
          "type": "string"
        }
      ],
      "name": "writeEcho",
      "outputs": [],
      "stateMutability": "nonpayable",
      "type": "function"
    }
  ],
  "bytecode": "0x60806040523480156200001157600080fd5b506200003c6040518060600160405280602f815260200162001537602f91396200004260201b60201c565b6200023c565b620000e281604051602401620000599190620001e9565b6040516020818303038152906040527f41304fac000000000000000000000000000000000000000000000000000000007bffffffffffffffffffffffffffffffffffffffffffffffffffffffff19166020820180517bffffffffffffffffffffffffffffffffffffffffffffffffffffffff8381831617835250505050620000e560201b60201c565b50565b6200010b81620001066200010e60201b62000729176200012f60201b60201c565b60201c565b50565b60006a636f6e736f6c652e6c6f679050600080835160208501845afa505050565b6200014360201b6200080e17819050919050565b6200014d6200020d565b565b600081519050919050565b600082825260208201905092915050565b60005b838110156200018b5780820151818401526020810190506200016e565b60008484015250505050565b6000601f19601f8301169050919050565b6000620001b5826200014f565b620001c181856200015a565b9350620001d38185602086016200016b565b620001de8162000197565b840191505092915050565b60006020820190508181036000830152620002058184620001a8565b905092915050565b7f4e487b7100000000000000000000000000000000000000000000000000000000600052605160045260246000fd5b6112eb806200024c6000396000f3fe608060405234801561001057600080fd5b50600436106100575760003560e01c806305eefb571461005c57806352c1a5b214610078578063b599efad146100a8578063f972b372146100c6578063fc154017146100e4575b600080fd5b610076600480360381019061007191906109a9565b610102565b005b610092600480360381019061008d9190610a28565b61028e565b60405161009f9190610b74565b60405180910390f35b6100b06103fe565b6040516100bd9190610b74565b60405180910390f35b6100ce610560565b6040516100db9190610ba5565b60405180910390f35b6100ec610569565b6040516100f99190610cd2565b60405180910390f35b60016000808282546101149190610d23565b9250508190555061015b6040518060400160405280601881526020017f257320686173206563686f65642077697468204349443a200000000000000000815250338361074a565b600060405180606001604052803373ffffffffffffffffffffffffffffffffffffffff16815260200183815260200142815250905080600160008054815260200190815260200160002060008201518160000160006101000a81548173ffffffffffffffffffffffffffffffffffffffff021916908373ffffffffffffffffffffffffffffffffffffffff16021790555060208201518160010190816102019190610f63565b5060408201518160020155905050600260005490806001815401808255809150506001900390600052602060002001600090919091909150553373ffffffffffffffffffffffffffffffffffffffff167fcc1768b2bb333c251e77c649cdb86a181eea2c913d04f3db035b7bdf1e2b7f45428460405161028292919061107f565b60405180910390a25050565b610296610818565b6000821180156102a857506000548211155b6102e7576040517f08c379a00000000000000000000000000000000000000000000000000000000081526004016102de906110fb565b60405180910390fd5b600160008381526020019081526020016000206040518060600160405290816000820160009054906101000a900473ffffffffffffffffffffffffffffffffffffffff1673ffffffffffffffffffffffffffffffffffffffff1673ffffffffffffffffffffffffffffffffffffffff16815260200160018201805461036b90610d86565b80601f016020809104026020016040519081016040528092919081815260200182805461039790610d86565b80156103e45780601f106103b9576101008083540402835291602001916103e4565b820191906000526020600020905b8154815290600101906020018083116103c757829003601f168201915b505050505081526020016002820154815250509050919050565b610406610818565b600080541161044a576040517f08c379a000000000000000000000000000000000000000000000000000000000815260040161044190611167565b60405180910390fd5b60016000805481526020019081526020016000206040518060600160405290816000820160009054906101000a900473ffffffffffffffffffffffffffffffffffffffff1673ffffffffffffffffffffffffffffffffffffffff1673ffffffffffffffffffffffffffffffffffffffff1681526020016001820180546104cf90610d86565b80601f01602080910402602001604051908101604052809291908181526020018280546104fb90610d86565b80156105485780601f1061051d57610100808354040283529160200191610548565b820191906000526020600020905b81548152906001019060200180831161052b57829003601f168201915b50505050508152602001600282015481525050905090565b60008054905090565b60606000805467ffffffffffffffff8111156105885761058761087e565b5b6040519080825280602002602001820160405280156105c157816020015b6105ae610818565b8152602001906001900390816105a65790505b5090506000600190505b600054811161072157600160008281526020019081526020016000206040518060600160405290816000820160009054906101000a900473ffffffffffffffffffffffffffffffffffffffff1673ffffffffffffffffffffffffffffffffffffffff1673ffffffffffffffffffffffffffffffffffffffff16815260200160018201805461065890610d86565b80601f016020809104026020016040519081016040528092919081815260200182805461068490610d86565b80156106d15780601f106106a6576101008083540402835291602001916106d1565b820191906000526020600020905b8154815290600101906020018083116106b457829003601f168201915b50505050508152602001600282015481525050826001836106f29190611187565b81518110610703576107026111bb565b5b60200260200101819052508080610719906111ea565b9150506105cb565b508091505090565b60006a636f6e736f6c652e6c6f679050600080835160208501845afa505050565b6107e483838360405160240161076293929190611241565b6040516020818303038152906040527fe0e9ad4f000000000000000000000000000000000000000000000000000000007bffffffffffffffffffffffffffffffffffffffffffffffffffffffff19166020820180517bffffffffffffffffffffffffffffffffffffffffffffffffffffffff83818316178352505050506107e9565b505050565b610800816107f8610729610803565b63ffffffff16565b50565b61080e819050919050565b610816611286565b565b6040518060600160405280600073ffffffffffffffffffffffffffffffffffffffff16815260200160608152602001600081525090565b6000604051905090565b600080fd5b600080fd5b600080fd5b600080fd5b6000601f19601f8301169050919050565b7f4e487b7100000000000000000000000000000000000000000000000000000000600052604160045260246000fd5b6108b68261086d565b810181811067ffffffffffffffff821117156108d5576108d461087e565b5b80604052505050565b60006108e861084f565b90506108f482826108ad565b919050565b600067ffffffffffffffff8211156109145761091361087e565b5b61091d8261086d565b9050602081019050919050565b82818337600083830152505050565b600061094c610947846108f9565b6108de565b90508281526020810184848401111561096857610967610868565b5b61097384828561092a565b509392505050565b600082601f8301126109905761098f610863565b5b81356109a0848260208601610939565b91505092915050565b6000602082840312156109bf576109be610859565b5b600082013567ffffffffffffffff8111156109dd576109dc61085e565b5b6109e98482850161097b565b91505092915050565b6000819050919050565b610a05816109f2565b8114610a1057600080fd5b50565b600081359050610a22816109fc565b92915050565b600060208284031215610a3e57610a3d610859565b5b6000610a4c84828501610a13565b91505092915050565b600073ffffffffffffffffffffffffffffffffffffffff82169050919050565b6000610a8082610a55565b9050919050565b610a9081610a75565b82525050565b600081519050919050565b600082825260208201905092915050565b60005b83811015610ad0578082015181840152602081019050610ab5565b60008484015250505050565b6000610ae782610a96565b610af18185610aa1565b9350610b01818560208601610ab2565b610b0a8161086d565b840191505092915050565b610b1e816109f2565b82525050565b6000606083016000830151610b3c6000860182610a87565b5060208301518482036020860152610b548282610adc565b9150506040830151610b696040860182610b15565b508091505092915050565b60006020820190508181036000830152610b8e8184610b24565b905092915050565b610b9f816109f2565b82525050565b6000602082019050610bba6000830184610b96565b92915050565b600081519050919050565b600082825260208201905092915050565b6000819050602082019050919050565b6000606083016000830151610c046000860182610a87565b5060208301518482036020860152610c1c8282610adc565b9150506040830151610c316040860182610b15565b508091505092915050565b6000610c488383610bec565b905092915050565b6000602082019050919050565b6000610c6882610bc0565b610c728185610bcb565b935083602082028501610c8485610bdc565b8060005b85811015610cc05784840389528151610ca18582610c3c565b9450610cac83610c50565b925060208a01995050600181019050610c88565b50829750879550505050505092915050565b60006020820190508181036000830152610cec8184610c5d565b905092915050565b7f4e487b7100000000000000000000000000000000000000000000000000000000600052601160045260246000fd5b6000610d2e826109f2565b9150610d39836109f2565b9250828201905080821115610d5157610d50610cf4565b5b92915050565b7f4e487b7100000000000000000000000000000000000000000000000000000000600052602260045260246000fd5b60006002820490506001821680610d9e57607f821691505b602082108103610db157610db0610d57565b5b50919050565b60008190508160005260206000209050919050565b60006020601f8301049050919050565b600082821b905092915050565b600060088302610e197fffffffffffffffffffffffffffffffffffffffffffffffffffffffffffffffff82610ddc565b610e238683610ddc565b95508019841693508086168417925050509392505050565b6000819050919050565b6000610e60610e5b610e56846109f2565b610e3b565b6109f2565b9050919050565b6000819050919050565b610e7a83610e45565b610e8e610e8682610e67565b848454610de9565b825550505050565b600090565b610ea3610e96565b610eae818484610e71565b505050565b5b81811015610ed257610ec7600082610e9b565b600181019050610eb4565b5050565b601f821115610f1757610ee881610db7565b610ef184610dcc565b81016020851015610f00578190505b610f14610f0c85610dcc565b830182610eb3565b50505b505050565b600082821c905092915050565b6000610f3a60001984600802610f1c565b1980831691505092915050565b6000610f538383610f29565b9150826002028217905092915050565b610f6c82610a96565b67ffffffffffffffff811115610f8557610f8461087e565b5b610f8f8254610d86565b610f9a828285610ed6565b600060209050601f831160018114610fcd5760008415610fbb578287015190505b610fc58582610f47565b86555061102d565b601f198416610fdb86610db7565b60005b8281101561100357848901518255600182019150602085019450602081019050610fde565b86831015611020578489015161101c601f891682610f29565b8355505b6001600288020188555050505b505050505050565b600082825260208201905092915050565b600061105182610a96565b61105b8185611035565b935061106b818560208601610ab2565b6110748161086d565b840191505092915050565b60006040820190506110946000830185610b96565b81810360208301526110a68184611046565b90509392505050565b7f496e76616c6964206563686f2049440000000000000000000000000000000000600082015250565b60006110e5600f83611035565b91506110f0826110af565b602082019050919050565b60006020820190508181036000830152611114816110d8565b9050919050565b7f4e6f206563686f65732079657400000000000000000000000000000000000000600082015250565b6000611151600d83611035565b915061115c8261111b565b602082019050919050565b6000602082019050818103600083015261118081611144565b9050919050565b6000611192826109f2565b915061119d836109f2565b92508282039050818111156111b5576111b4610cf4565b5b92915050565b7f4e487b7100000000000000000000000000000000000000000000000000000000600052603260045260246000fd5b60006111f5826109f2565b91507fffffffffffffffffffffffffffffffffffffffffffffffffffffffffffffffff820361122757611226610cf4565b5b600182019050919050565b61123b81610a75565b82525050565b6000606082019050818103600083015261125b8186611046565b905061126a6020830185611232565b818103604083015261127c8184611046565b9050949350505050565b7f4e487b7100000000000000000000000000000000000000000000000000000000600052605160045260246000fdfea26469706673582212205bf96663cb25939f736d35379e776f592c87514120b7fbf6279b7b6a7957248b64736f6c634300081300334574684563686f20636f6e7472616374206465706c6f7965642077697468204950465320696e746567726174696f6e",
  "linkReferences": {},
  "deployedLinkReferences": {}
}