{
  "_format": "hh-sol-artifact-1",
  "contractName": "EthEcho",
  "sourceName": "contracts/EthEcho.sol",
  "abi": [
    {
      "inputs": [],
      "stateMutability": "nonpayable",
      "type": "constructor"
    },
    {
      "anonymous": false,
      "inputs": [
        {
          "indexed": true,
          "internalType": "address",
          "name": "from",
          "type": "address"
        },
        {
          "indexed": false,
          "internalType": "uint256",
          "name": "timestamp",
          "type": "uint256"
        },
        {
          "indexed": false,
          "internalType": "string",
          "name": "message",
          "type": "string"
        }
      ],
      "name": "NewEcho",
      "type": "event"
    },
    {
      "inputs": [],
      "name": "getLatestEcho",
      "outputs": [
        {
          "components": [
            {
              "internalType": "address",
              "name": "echoer",
              "type": "address"
            },
            {
              "internalType": "string",
              "name": "message",
              "type": "string"
            },
            {
              "internalType": "uint256",
              "name": "timestamp",
              "type": "uint256"
            }
          ],
          "internalType": "struct EthEcho.Echo",
          "name": "",
          "type": "tuple"
        }
      ],
      "stateMutability": "view",
      "type": "function"
    },
    {
      "inputs": [],
      "name": "getTotalEchoes",
      "outputs": [
        {
          "internalType": "uint256",
          "name": "",
          "type": "uint256"
        }
      ],
      "stateMutability": "view",
      "type": "function"
    },
    {
      "inputs": [
        {
          "internalType": "string",
          "name": "_message",
          "type": "string"
        }
      ],
      "name": "writeEcho",
      "outputs": [],
      "stateMutability": "nonpayable",
      "type": "function"
    }
  ],
  "bytecode": "0x60806040523480156200001157600080fd5b50620000586040518060400160405280601f81526020017f48657265206973206d7920666972737420736d61727420636f6e7472616374008152506200005e60201b60201c565b62000258565b620000fe8160405160240162000075919062000205565b6040516020818303038152906040527f41304fac000000000000000000000000000000000000000000000000000000007bffffffffffffffffffffffffffffffffffffffffffffffffffffffff19166020820180517bffffffffffffffffffffffffffffffffffffffffffffffffffffffff83818316178352505050506200010160201b60201c565b50565b6200012781620001226200012a60201b6200033d176200014b60201b60201c565b60201c565b50565b60006a636f6e736f6c652e6c6f679050600080835160208501845afa505050565b6200015f60201b620004bb17819050919050565b6200016962000229565b565b600081519050919050565b600082825260208201905092915050565b60005b83811015620001a75780820151818401526020810190506200018a565b60008484015250505050565b6000601f19601f8301169050919050565b6000620001d1826200016b565b620001dd818562000176565b9350620001ef81856020860162000187565b620001fa81620001b3565b840191505092915050565b60006020820190508181036000830152620002218184620001c4565b905092915050565b7f4e487b7100000000000000000000000000000000000000000000000000000000600052605160045260246000fd5b610ca380620002686000396000f3fe608060405234801561001057600080fd5b50600436106100415760003560e01c806305eefb5714610046578063b599efad14610062578063f972b37214610080575b600080fd5b610060600480360381019061005b9190610656565b61009e565b005b61006a6101e6565b60405161007791906107c8565b60405180910390f35b6100886102f2565b60405161009591906107f9565b60405180910390f35b60016000808282546100b09190610843565b925050819055506100f66040518060400160405280600e81526020017f257320686173206563686f6564210000000000000000000000000000000000008152503361035e565b60405180606001604052803373ffffffffffffffffffffffffffffffffffffffff16815260200182815260200142815250600160008201518160000160006101000a81548173ffffffffffffffffffffffffffffffffffffffff021916908373ffffffffffffffffffffffffffffffffffffffff16021790555060208201518160010190816101859190610a83565b50604082015181600201559050503373ffffffffffffffffffffffffffffffffffffffff167fcc1768b2bb333c251e77c649cdb86a181eea2c913d04f3db035b7bdf1e2b7f4542836040516101db929190610b9f565b60405180910390a250565b6101ee6104c5565b60016040518060600160405290816000820160009054906101000a900473ffffffffffffffffffffffffffffffffffffffff1673ffffffffffffffffffffffffffffffffffffffff1673ffffffffffffffffffffffffffffffffffffffff168152602001600182018054610261906108a6565b80601f016020809104026020016040519081016040528092919081815260200182805461028d906108a6565b80156102da5780601f106102af576101008083540402835291602001916102da565b820191906000526020600020905b8154815290600101906020018083116102bd57829003601f168201915b50505050508152602001600282015481525050905090565b60006103356040518060400160405280601881526020017f5765206861766520256420746f74616c206563686f65732100000000000000008152506000546103fa565b600054905090565b60006a636f6e736f6c652e6c6f679050600080835160208501845afa505050565b6103f68282604051602401610374929190610bde565b6040516020818303038152906040527f319af333000000000000000000000000000000000000000000000000000000007bffffffffffffffffffffffffffffffffffffffffffffffffffffffff19166020820180517bffffffffffffffffffffffffffffffffffffffffffffffffffffffff8381831617835250505050610496565b5050565b6104928282604051602401610410929190610c0e565b6040516020818303038152906040527fb60e72cc000000000000000000000000000000000000000000000000000000007bffffffffffffffffffffffffffffffffffffffffffffffffffffffff19166020820180517bffffffffffffffffffffffffffffffffffffffffffffffffffffffff8381831617835250505050610496565b5050565b6104ad816104a561033d6104b0565b63ffffffff16565b50565b6104bb819050919050565b6104c3610c3e565b565b6040518060600160405280600073ffffffffffffffffffffffffffffffffffffffff16815260200160608152602001600081525090565b6000604051905090565b600080fd5b600080fd5b600080fd5b600080fd5b6000601f19601f8301169050919050565b7f4e487b7100000000000000000000000000000000000000000000000000000000600052604160045260246000fd5b6105638261051a565b810181811067ffffffffffffffff821117156105825761058161052b565b5b80604052505050565b60006105956104fc565b90506105a1828261055a565b919050565b600067ffffffffffffffff8211156105c1576105c061052b565b5b6105ca8261051a565b9050602081019050919050565b82818337600083830152505050565b60006105f96105f4846105a6565b61058b565b90508281526020810184848401111561061557610614610515565b5b6106208482856105d7565b509392505050565b600082601f83011261063d5761063c610510565b5b813561064d8482602086016105e6565b91505092915050565b60006020828403121561066c5761066b610506565b5b600082013567ffffffffffffffff81111561068a5761068961050b565b5b61069684828501610628565b91505092915050565b600073ffffffffffffffffffffffffffffffffffffffff82169050919050565b60006106ca8261069f565b9050919050565b6106da816106bf565b82525050565b600081519050919050565b600082825260208201905092915050565b60005b8381101561071a5780820151818401526020810190506106ff565b60008484015250505050565b6000610731826106e0565b61073b81856106eb565b935061074b8185602086016106fc565b6107548161051a565b840191505092915050565b6000819050919050565b6107728161075f565b82525050565b600060608301600083015161079060008601826106d1565b50602083015184820360208601526107a88282610726565b91505060408301516107bd6040860182610769565b508091505092915050565b600060208201905081810360008301526107e28184610778565b905092915050565b6107f38161075f565b82525050565b600060208201905061080e60008301846107ea565b92915050565b7f4e487b7100000000000000000000000000000000000000000000000000000000600052601160045260246000fd5b600061084e8261075f565b91506108598361075f565b925082820190508082111561087157610870610814565b5b92915050565b7f4e487b7100000000000000000000000000000000000000000000000000000000600052602260045260246000fd5b600060028204905060018216806108be57607f821691505b6020821081036108d1576108d0610877565b5b50919050565b60008190508160005260206000209050919050565b60006020601f8301049050919050565b600082821b905092915050565b6000600883026109397fffffffffffffffffffffffffffffffffffffffffffffffffffffffffffffffff826108fc565b61094386836108fc565b95508019841693508086168417925050509392505050565b6000819050919050565b600061098061097b6109768461075f565b61095b565b61075f565b9050919050565b6000819050919050565b61099a83610965565b6109ae6109a682610987565b848454610909565b825550505050565b600090565b6109c36109b6565b6109ce818484610991565b505050565b5b818110156109f2576109e76000826109bb565b6001810190506109d4565b5050565b601f821115610a3757610a08816108d7565b610a11846108ec565b81016020851015610a20578190505b610a34610a2c856108ec565b8301826109d3565b50505b505050565b600082821c905092915050565b6000610a5a60001984600802610a3c565b1980831691505092915050565b6000610a738383610a49565b9150826002028217905092915050565b610a8c826106e0565b67ffffffffffffffff811115610aa557610aa461052b565b5b610aaf82546108a6565b610aba8282856109f6565b600060209050601f831160018114610aed5760008415610adb578287015190505b610ae58582610a67565b865550610b4d565b601f198416610afb866108d7565b60005b82811015610b2357848901518255600182019150602085019450602081019050610afe565b86831015610b405784890151610b3c601f891682610a49565b8355505b6001600288020188555050505b505050505050565b600082825260208201905092915050565b6000610b71826106e0565b610b7b8185610b55565b9350610b8b8185602086016106fc565b610b948161051a565b840191505092915050565b6000604082019050610bb460008301856107ea565b8181036020830152610bc68184610b66565b90509392505050565b610bd8816106bf565b82525050565b60006040820190508181036000830152610bf88185610b66565b9050610c076020830184610bcf565b9392505050565b60006040820190508181036000830152610c288185610b66565b9050610c3760208301846107ea565b9392505050565b7f4e487b7100000000000000000000000000000000000000000000000000000000600052605160045260246000fdfea264697066735822122003c918fe56ddb8ca4aa679df91ead31c7557e93dacff6a76d19bdf647e86ad2264736f6c63430008130033",
  "linkReferences": {},
  "deployedLinkReferences": {}
}