{
  "_format": "hh-sol-artifact-1",
  "contractName": "UserProfile",
  "sourceName": "contracts/userProfile.sol",
  "abi": [
    {
      "anonymous": false,
      "inputs": [
        {
          "indexed": true,
          "internalType": "address",
          "name": "user",
          "type": "address"
        },
        {
          "indexed": false,
          "internalType": "string",
          "name": "name",
          "type": "string"
        },
        {
          "indexed": false,
          "internalType": "string",
          "name": "detailsCID",
          "type": "string"
        }
      ],
      "name": "ProfileUpdated",
      "type": "event"
    },
    {
      "inputs": [
        {
          "internalType": "address",
          "name": "_user",
          "type": "address"
        }
      ],
      "name": "getProfile",
      "outputs": [
        {
          "internalType": "string",
          "name": "",
          "type": "string"
        },
        {
          "internalType": "string",
          "name": "",
          "type": "string"
        },
        {
          "internalType": "uint256",
          "name": "",
          "type": "uint256"
        }
      ],
      "stateMutability": "view",
      "type": "function"
    },
    {
      "inputs": [
        {
          "internalType": "address",
          "name": "",
          "type": "address"
        }
      ],
      "name": "profiles",
      "outputs": [
        {
          "internalType": "string",
          "name": "name",
          "type": "string"
        },
        {
          "internalType": "string",
          "name": "detailsCID",
          "type": "string"
        },
        {
          "internalType": "uint256",
          "name": "lastUpdated",
          "type": "uint256"
        }
      ],
      "stateMutability": "view",
      "type": "function"
    },
    {
      "inputs": [
        {
          "internalType": "string",
          "name": "_name",
          "type": "string"
        },
        {
          "internalType": "string",
          "name": "_detailsCID",
          "type": "string"
        }
      ],
      "name": "updateProfile",
      "outputs": [],
      "stateMutability": "nonpayable",
      "type": "function"
    }
  ],
  "bytecode": "0x608060405234801561001057600080fd5b50610b07806100206000396000f3fe608060405234801561001057600080fd5b50600436106100415760003560e01c80630f53a47014610046578063bbe1562714610078578063c9d3cc6a146100aa575b600080fd5b610060600480360381019061005b91906104f4565b6100c6565b60405161006f939291906105ca565b60405180910390f35b610092600480360381019061008d91906104f4565b610262565b6040516100a1939291906105ca565b60405180910390f35b6100c460048036038101906100bf9190610744565b61039c565b005b6060806000806000808673ffffffffffffffffffffffffffffffffffffffff1673ffffffffffffffffffffffffffffffffffffffff168152602001908152602001600020604051806060016040529081600082018054610125906107eb565b80601f0160208091040260200160405190810160405280929190818152602001828054610151906107eb565b801561019e5780601f106101735761010080835404028352916020019161019e565b820191906000526020600020905b81548152906001019060200180831161018157829003601f168201915b505050505081526020016001820180546101b7906107eb565b80601f01602080910402602001604051908101604052809291908181526020018280546101e3906107eb565b80156102305780601f1061020557610100808354040283529160200191610230565b820191906000526020600020905b81548152906001019060200180831161021357829003601f168201915b505050505081526020016002820154815250509050806000015181602001518260400151935093509350509193909250565b6000602052806000526040600020600091509050806000018054610285906107eb565b80601f01602080910402602001604051908101604052809291908181526020018280546102b1906107eb565b80156102fe5780601f106102d3576101008083540402835291602001916102fe565b820191906000526020600020905b8154815290600101906020018083116102e157829003601f168201915b505050505090806001018054610313906107eb565b80601f016020809104026020016040519081016040528092919081815260200182805461033f906107eb565b801561038c5780601f106103615761010080835404028352916020019161038c565b820191906000526020600020905b81548152906001019060200180831161036f57829003601f168201915b5050505050908060020154905083565b6040518060600160405280838152602001828152602001428152506000803373ffffffffffffffffffffffffffffffffffffffff1673ffffffffffffffffffffffffffffffffffffffff168152602001908152602001600020600082015181600001908161040a91906109c8565b50602082015181600101908161042091906109c8565b50604082015181600201559050503373ffffffffffffffffffffffffffffffffffffffff167f6eb3a1c6a4675ba92d44e090515b1ceea358f26565d2854df0c99c3f5eaf98508383604051610476929190610a9a565b60405180910390a25050565b6000604051905090565b600080fd5b600080fd5b600073ffffffffffffffffffffffffffffffffffffffff82169050919050565b60006104c182610496565b9050919050565b6104d1816104b6565b81146104dc57600080fd5b50565b6000813590506104ee816104c8565b92915050565b60006020828403121561050a5761050961048c565b5b6000610518848285016104df565b91505092915050565b600081519050919050565b600082825260208201905092915050565b60005b8381101561055b578082015181840152602081019050610540565b60008484015250505050565b6000601f19601f8301169050919050565b600061058382610521565b61058d818561052c565b935061059d81856020860161053d565b6105a681610567565b840191505092915050565b6000819050919050565b6105c4816105b1565b82525050565b600060608201905081810360008301526105e48186610578565b905081810360208301526105f88185610578565b905061060760408301846105bb565b949350505050565b600080fd5b600080fd5b7f4e487b7100000000000000000000000000000000000000000000000000000000600052604160045260246000fd5b61065182610567565b810181811067ffffffffffffffff821117156106705761066f610619565b5b80604052505050565b6000610683610482565b905061068f8282610648565b919050565b600067ffffffffffffffff8211156106af576106ae610619565b5b6106b882610567565b9050602081019050919050565b82818337600083830152505050565b60006106e76106e284610694565b610679565b90508281526020810184848401111561070357610702610614565b5b61070e8482856106c5565b509392505050565b600082601f83011261072b5761072a61060f565b5b813561073b8482602086016106d4565b91505092915050565b6000806040838503121561075b5761075a61048c565b5b600083013567ffffffffffffffff81111561077957610778610491565b5b61078585828601610716565b925050602083013567ffffffffffffffff8111156107a6576107a5610491565b5b6107b285828601610716565b9150509250929050565b7f4e487b7100000000000000000000000000000000000000000000000000000000600052602260045260246000fd5b6000600282049050600182168061080357607f821691505b602082108103610816576108156107bc565b5b50919050565b60008190508160005260206000209050919050565b60006020601f8301049050919050565b600082821b905092915050565b60006008830261087e7fffffffffffffffffffffffffffffffffffffffffffffffffffffffffffffffff82610841565b6108888683610841565b95508019841693508086168417925050509392505050565b6000819050919050565b60006108c56108c06108bb846105b1565b6108a0565b6105b1565b9050919050565b6000819050919050565b6108df836108aa565b6108f36108eb826108cc565b84845461084e565b825550505050565b600090565b6109086108fb565b6109138184846108d6565b505050565b5b818110156109375761092c600082610900565b600181019050610919565b5050565b601f82111561097c5761094d8161081c565b61095684610831565b81016020851015610965578190505b61097961097185610831565b830182610918565b50505b505050565b600082821c905092915050565b600061099f60001984600802610981565b1980831691505092915050565b60006109b8838361098e565b9150826002028217905092915050565b6109d182610521565b67ffffffffffffffff8111156109ea576109e9610619565b5b6109f482546107eb565b6109ff82828561093b565b600060209050601f831160018114610a325760008415610a20578287015190505b610a2a85826109ac565b865550610a92565b601f198416610a408661081c565b60005b82811015610a6857848901518255600182019150602085019450602081019050610a43565b86831015610a855784890151610a81601f89168261098e565b8355505b6001600288020188555050505b505050505050565b60006040820190508181036000830152610ab48185610578565b90508181036020830152610ac88184610578565b9050939250505056fea2646970667358221220aed3d97f070a1eaec97f355422f574a37f9957a95ca67ccece60da1b7410f0ce64736f6c63430008130033",
  "linkReferences": {},
  "deployedLinkReferences": {}
}