{
  "_format": "hh-sol-artifact-1",
  "contractName": "UserProfile",
  "sourceName": "contracts/userProfile.sol",
  "abi": [
    {
      "anonymous": false,
      "inputs": [
        {
          "indexed": true,
          "internalType": "address",
          "name": "user",
          "type": "address"
        },
        {
          "indexed": false,
          "internalType": "string",
          "name": "detailsCID",
          "type": "string"
        }
      ],
      "name": "ProfileUpdated",
      "type": "event"
    },
    {
      "inputs": [
        {
          "internalType": "address",
          "name": "_user",
          "type": "address"
        }
      ],
      "name": "getProfile",
      "outputs": [
        {
          "internalType": "string",
          "name": "",
          "type": "string"
        },
        {
          "internalType": "uint256",
          "name": "",
          "type": "uint256"
        }
      ],
      "stateMutability": "view",
      "type": "function"
    },
    {
      "inputs": [
        {
          "internalType": "address",
          "name": "_user",
          "type": "address"
        }
      ],
      "name": "hasProfile",
      "outputs": [
        {
          "internalType": "bool",
          "name": "",
          "type": "bool"
        }
      ],
      "stateMutability": "view",
      "type": "function"
    },
    {
      "inputs": [
        {
          "internalType": "address",
          "name": "",
          "type": "address"
        }
      ],
      "name": "profiles",
      "outputs": [
        {
          "internalType": "string",
          "name": "detailsCID",
          "type": "string"
        },
        {
          "internalType": "uint256",
          "name": "lastUpdated",
          "type": "uint256"
        }
      ],
      "stateMutability": "view",
      "type": "function"
    },
    {
      "inputs": [
        {
          "internalType": "string",
          "name": "_detailsCID",
          "type": "string"
        }
      ],
      "name": "updateProfile",
      "outputs": [],
      "stateMutability": "nonpayable",
      "type": "function"
    }
  ],
  "bytecode": "0x608060405234801561001057600080fd5b50610a2c806100206000396000f3fe608060405234801561001057600080fd5b506004361061004b5760003560e01c80629299e3146100505780630f53a4701461006c578063a787c80b1461009d578063bbe15627146100cd575b600080fd5b61006a60048036038101906100659190610524565b6100fe565b005b610086600480360381019061008191906105cb565b6101c5565b604051610094929190610690565b60405180910390f35b6100b760048036038101906100b291906105cb565b6102c5565b6040516100c491906106db565b60405180910390f35b6100e760048036038101906100e291906105cb565b61031e565b6040516100f5929190610690565b60405180910390f35b6040518060400160405280828152602001428152506000803373ffffffffffffffffffffffffffffffffffffffff1673ffffffffffffffffffffffffffffffffffffffff16815260200190815260200160002060008201518160000190816101669190610902565b50602082015181600101559050503373ffffffffffffffffffffffffffffffffffffffff167fdd635a4cd84864e37e4479dbfc2ec667acfa473c83c8422a8ac9d9d07599b01c826040516101ba91906109d4565b60405180910390a250565b60606000806000808573ffffffffffffffffffffffffffffffffffffffff1673ffffffffffffffffffffffffffffffffffffffff16815260200190815260200160002060405180604001604052908160008201805461022390610725565b80601f016020809104026020016040519081016040528092919081815260200182805461024f90610725565b801561029c5780601f106102715761010080835404028352916020019161029c565b820191906000526020600020905b81548152906001019060200180831161027f57829003601f168201915b505050505081526020016001820154815250509050806000015181602001519250925050915091565b6000806000808473ffffffffffffffffffffffffffffffffffffffff1673ffffffffffffffffffffffffffffffffffffffff168152602001908152602001600020600001805461031490610725565b9050119050919050565b600060205280600052604060002060009150905080600001805461034190610725565b80601f016020809104026020016040519081016040528092919081815260200182805461036d90610725565b80156103ba5780601f1061038f576101008083540402835291602001916103ba565b820191906000526020600020905b81548152906001019060200180831161039d57829003601f168201915b5050505050908060010154905082565b6000604051905090565b600080fd5b600080fd5b600080fd5b600080fd5b6000601f19601f8301169050919050565b7f4e487b7100000000000000000000000000000000000000000000000000000000600052604160045260246000fd5b610431826103e8565b810181811067ffffffffffffffff821117156104505761044f6103f9565b5b80604052505050565b60006104636103ca565b905061046f8282610428565b919050565b600067ffffffffffffffff82111561048f5761048e6103f9565b5b610498826103e8565b9050602081019050919050565b82818337600083830152505050565b60006104c76104c284610474565b610459565b9050828152602081018484840111156104e3576104e26103e3565b5b6104ee8482856104a5565b509392505050565b600082601f83011261050b5761050a6103de565b5b813561051b8482602086016104b4565b91505092915050565b60006020828403121561053a576105396103d4565b5b600082013567ffffffffffffffff811115610558576105576103d9565b5b610564848285016104f6565b91505092915050565b600073ffffffffffffffffffffffffffffffffffffffff82169050919050565b60006105988261056d565b9050919050565b6105a88161058d565b81146105b357600080fd5b50565b6000813590506105c58161059f565b92915050565b6000602082840312156105e1576105e06103d4565b5b60006105ef848285016105b6565b91505092915050565b600081519050919050565b600082825260208201905092915050565b60005b83811015610632578082015181840152602081019050610617565b60008484015250505050565b6000610649826105f8565b6106538185610603565b9350610663818560208601610614565b61066c816103e8565b840191505092915050565b6000819050919050565b61068a81610677565b82525050565b600060408201905081810360008301526106aa818561063e565b90506106b96020830184610681565b9392505050565b60008115159050919050565b6106d5816106c0565b82525050565b60006020820190506106f060008301846106cc565b92915050565b7f4e487b7100000000000000000000000000000000000000000000000000000000600052602260045260246000fd5b6000600282049050600182168061073d57607f821691505b6020821081036107505761074f6106f6565b5b50919050565b60008190508160005260206000209050919050565b60006020601f8301049050919050565b600082821b905092915050565b6000600883026107b87fffffffffffffffffffffffffffffffffffffffffffffffffffffffffffffffff8261077b565b6107c2868361077b565b95508019841693508086168417925050509392505050565b6000819050919050565b60006107ff6107fa6107f584610677565b6107da565b610677565b9050919050565b6000819050919050565b610819836107e4565b61082d61082582610806565b848454610788565b825550505050565b600090565b610842610835565b61084d818484610810565b505050565b5b818110156108715761086660008261083a565b600181019050610853565b5050565b601f8211156108b65761088781610756565b6108908461076b565b8101602085101561089f578190505b6108b36108ab8561076b565b830182610852565b50505b505050565b600082821c905092915050565b60006108d9600019846008026108bb565b1980831691505092915050565b60006108f283836108c8565b9150826002028217905092915050565b61090b826105f8565b67ffffffffffffffff811115610924576109236103f9565b5b61092e8254610725565b610939828285610875565b600060209050601f83116001811461096c576000841561095a578287015190505b61096485826108e6565b8655506109cc565b601f19841661097a86610756565b60005b828110156109a25784890151825560018201915060208501945060208101905061097d565b868310156109bf57848901516109bb601f8916826108c8565b8355505b6001600288020188555050505b505050505050565b600060208201905081810360008301526109ee818461063e565b90509291505056fea2646970667358221220bf182cc6be003a25c2a4aaa62fe24047bf400a265b4920e36890b462f98c173764736f6c63430008130033",
  "linkReferences": {},
  "deployedLinkReferences": {}
}