{
  "_format": "hh-sol-artifact-1",
  "contractName": "UserProfile",
  "sourceName": "contracts/userProfile.sol",
  "abi": [
    {
      "anonymous": false,
      "inputs": [
        {
          "indexed": true,
          "internalType": "address",
          "name": "user",
          "type": "address"
        },
        {
          "indexed": false,
          "internalType": "string",
          "name": "name",
          "type": "string"
        },
        {
          "indexed": false,
          "internalType": "string",
          "name": "detailsCID",
          "type": "string"
        }
      ],
      "name": "ProfileUpdated",
      "type": "event"
    },
    {
      "inputs": [
        {
          "internalType": "address",
          "name": "_user",
          "type": "address"
        }
      ],
      "name": "getDetailsCID",
      "outputs": [
        {
          "internalType": "string",
          "name": "",
          "type": "string"
        }
      ],
      "stateMutability": "view",
      "type": "function"
    },
    {
      "inputs": [
        {
          "internalType": "address",
          "name": "_user",
          "type": "address"
        }
      ],
      "name": "getName",
      "outputs": [
        {
          "internalType": "string",
          "name": "",
          "type": "string"
        }
      ],
      "stateMutability": "view",
      "type": "function"
    },
    {
      "inputs": [
        {
          "internalType": "address",
          "name": "_user",
          "type": "address"
        }
      ],
      "name": "getProfile",
      "outputs": [
        {
          "internalType": "string",
          "name": "",
          "type": "string"
        },
        {
          "internalType": "string",
          "name": "",
          "type": "string"
        },
        {
          "internalType": "uint256",
          "name": "",
          "type": "uint256"
        }
      ],
      "stateMutability": "view",
      "type": "function"
    },
    {
      "inputs": [
        {
          "internalType": "address",
          "name": "_user",
          "type": "address"
        }
      ],
      "name": "hasProfile",
      "outputs": [
        {
          "internalType": "bool",
          "name": "",
          "type": "bool"
        }
      ],
      "stateMutability": "view",
      "type": "function"
    },
    {
      "inputs": [
        {
          "internalType": "address",
          "name": "",
          "type": "address"
        }
      ],
      "name": "profiles",
      "outputs": [
        {
          "internalType": "string",
          "name": "name",
          "type": "string"
        },
        {
          "internalType": "string",
          "name": "detailsCID",
          "type": "string"
        },
        {
          "internalType": "uint256",
          "name": "lastUpdated",
          "type": "uint256"
        }
      ],
      "stateMutability": "view",
      "type": "function"
    },
    {
      "inputs": [
        {
          "internalType": "string",
          "name": "_name",
          "type": "string"
        },
        {
          "internalType": "string",
          "name": "_detailsCID",
          "type": "string"
        }
      ],
      "name": "updateProfile",
      "outputs": [],
      "stateMutability": "nonpayable",
      "type": "function"
    }
  ],
  "bytecode": "0x608060405234801561001057600080fd5b50610e0f806100206000396000f3fe608060405234801561001057600080fd5b50600436106100625760003560e01c80630f53a470146100675780635fd4b08a14610099578063a787c80b146100c9578063bbe15627146100f9578063c9d3cc6a1461012b578063f3d4d08d14610147575b600080fd5b610081600480360381019061007c91906107a4565b610177565b6040516100909392919061087a565b60405180910390f35b6100b360048036038101906100ae91906107a4565b610313565b6040516100c091906108bf565b60405180910390f35b6100e360048036038101906100de91906107a4565b6103e6565b6040516100f091906108fc565b60405180910390f35b610113600480360381019061010e91906107a4565b61043f565b6040516101229392919061087a565b60405180910390f35b61014560048036038101906101409190610a4c565b610579565b005b610161600480360381019061015c91906107a4565b61065f565b60405161016e91906108bf565b60405180910390f35b6060806000806000808673ffffffffffffffffffffffffffffffffffffffff1673ffffffffffffffffffffffffffffffffffffffff1681526020019081526020016000206040518060600160405290816000820180546101d690610af3565b80601f016020809104026020016040519081016040528092919081815260200182805461020290610af3565b801561024f5780601f106102245761010080835404028352916020019161024f565b820191906000526020600020905b81548152906001019060200180831161023257829003601f168201915b5050505050815260200160018201805461026890610af3565b80601f016020809104026020016040519081016040528092919081815260200182805461029490610af3565b80156102e15780601f106102b6576101008083540402835291602001916102e1565b820191906000526020600020905b8154815290600101906020018083116102c457829003601f168201915b505050505081526020016002820154815250509050806000015181602001518260400151935093509350509193909250565b60606000808373ffffffffffffffffffffffffffffffffffffffff1673ffffffffffffffffffffffffffffffffffffffff168152602001908152602001600020600001805461036190610af3565b80601f016020809104026020016040519081016040528092919081815260200182805461038d90610af3565b80156103da5780601f106103af576101008083540402835291602001916103da565b820191906000526020600020905b8154815290600101906020018083116103bd57829003601f168201915b50505050509050919050565b6000806000808473ffffffffffffffffffffffffffffffffffffffff1673ffffffffffffffffffffffffffffffffffffffff168152602001908152602001600020600001805461043590610af3565b9050119050919050565b600060205280600052604060002060009150905080600001805461046290610af3565b80601f016020809104026020016040519081016040528092919081815260200182805461048e90610af3565b80156104db5780601f106104b0576101008083540402835291602001916104db565b820191906000526020600020905b8154815290600101906020018083116104be57829003601f168201915b5050505050908060010180546104f090610af3565b80601f016020809104026020016040519081016040528092919081815260200182805461051c90610af3565b80156105695780601f1061053e57610100808354040283529160200191610569565b820191906000526020600020905b81548152906001019060200180831161054c57829003601f168201915b5050505050908060020154905083565b6040518060600160405280838152602001828152602001428152506000803373ffffffffffffffffffffffffffffffffffffffff1673ffffffffffffffffffffffffffffffffffffffff16815260200190815260200160002060008201518160000190816105e79190610cd0565b5060208201518160010190816105fd9190610cd0565b50604082015181600201559050503373ffffffffffffffffffffffffffffffffffffffff167f6eb3a1c6a4675ba92d44e090515b1ceea358f26565d2854df0c99c3f5eaf98508383604051610653929190610da2565b60405180910390a25050565b60606000808373ffffffffffffffffffffffffffffffffffffffff1673ffffffffffffffffffffffffffffffffffffffff16815260200190815260200160002060010180546106ad90610af3565b80601f01602080910402602001604051908101604052809291908181526020018280546106d990610af3565b80156107265780601f106106fb57610100808354040283529160200191610726565b820191906000526020600020905b81548152906001019060200180831161070957829003601f168201915b50505050509050919050565b6000604051905090565b600080fd5b600080fd5b600073ffffffffffffffffffffffffffffffffffffffff82169050919050565b600061077182610746565b9050919050565b61078181610766565b811461078c57600080fd5b50565b60008135905061079e81610778565b92915050565b6000602082840312156107ba576107b961073c565b5b60006107c88482850161078f565b91505092915050565b600081519050919050565b600082825260208201905092915050565b60005b8381101561080b5780820151818401526020810190506107f0565b60008484015250505050565b6000601f19601f8301169050919050565b6000610833826107d1565b61083d81856107dc565b935061084d8185602086016107ed565b61085681610817565b840191505092915050565b6000819050919050565b61087481610861565b82525050565b600060608201905081810360008301526108948186610828565b905081810360208301526108a88185610828565b90506108b7604083018461086b565b949350505050565b600060208201905081810360008301526108d98184610828565b905092915050565b60008115159050919050565b6108f6816108e1565b82525050565b600060208201905061091160008301846108ed565b92915050565b600080fd5b600080fd5b7f4e487b7100000000000000000000000000000000000000000000000000000000600052604160045260246000fd5b61095982610817565b810181811067ffffffffffffffff8211171561097857610977610921565b5b80604052505050565b600061098b610732565b90506109978282610950565b919050565b600067ffffffffffffffff8211156109b7576109b6610921565b5b6109c082610817565b9050602081019050919050565b82818337600083830152505050565b60006109ef6109ea8461099c565b610981565b905082815260208101848484011115610a0b57610a0a61091c565b5b610a168482856109cd565b509392505050565b600082601f830112610a3357610a32610917565b5b8135610a438482602086016109dc565b91505092915050565b60008060408385031215610a6357610a6261073c565b5b600083013567ffffffffffffffff811115610a8157610a80610741565b5b610a8d85828601610a1e565b925050602083013567ffffffffffffffff811115610aae57610aad610741565b5b610aba85828601610a1e565b9150509250929050565b7f4e487b7100000000000000000000000000000000000000000000000000000000600052602260045260246000fd5b60006002820490506001821680610b0b57607f821691505b602082108103610b1e57610b1d610ac4565b5b50919050565b60008190508160005260206000209050919050565b60006020601f8301049050919050565b600082821b905092915050565b600060088302610b867fffffffffffffffffffffffffffffffffffffffffffffffffffffffffffffffff82610b49565b610b908683610b49565b95508019841693508086168417925050509392505050565b6000819050919050565b6000610bcd610bc8610bc384610861565b610ba8565b610861565b9050919050565b6000819050919050565b610be783610bb2565b610bfb610bf382610bd4565b848454610b56565b825550505050565b600090565b610c10610c03565b610c1b818484610bde565b505050565b5b81811015610c3f57610c34600082610c08565b600181019050610c21565b5050565b601f821115610c8457610c5581610b24565b610c5e84610b39565b81016020851015610c6d578190505b610c81610c7985610b39565b830182610c20565b50505b505050565b600082821c905092915050565b6000610ca760001984600802610c89565b1980831691505092915050565b6000610cc08383610c96565b9150826002028217905092915050565b610cd9826107d1565b67ffffffffffffffff811115610cf257610cf1610921565b5b610cfc8254610af3565b610d07828285610c43565b600060209050601f831160018114610d3a5760008415610d28578287015190505b610d328582610cb4565b865550610d9a565b601f198416610d4886610b24565b60005b82811015610d7057848901518255600182019150602085019450602081019050610d4b565b86831015610d8d5784890151610d89601f891682610c96565b8355505b6001600288020188555050505b505050505050565b60006040820190508181036000830152610dbc8185610828565b90508181036020830152610dd08184610828565b9050939250505056fea2646970667358221220201897f6508712d8d1b514c687f955b20149826f89ed74ece8cbc1db7999735064736f6c63430008130033",
  "linkReferences": {},
  "deployedLinkReferences": {}
}